:1000000019C03DC03CC03BC0C1C239C038C037C0B8
:1000100036C035C03EC533C032C031C030C0010229
:1000200004081020010101010101003600380037E9
:100030004201490111241FBECFE5D2E0DEBFCDBF92
:1000400010E0A0E6B0E0E4ECFFE002C005900D9205
:10005000A836B107D9F720E0A8E6B0E001C01D92AC
:10006000A139B207E1F710E0C2E3D0E003C0229764
:10007000FE013CD6C033D107D1F772D597C7C0CFA8
:1000800060E084E057D361E083E054D38AE690E0F7
:100090005AD18AE690E062C1CF92DF92EF92FF924E
:1000A000CF93DF936B017C0120ED37E040E050E01F
:1000B0006EE571E083E0CFD3C0E0D0E08AE690E067
:1000C00052D2C817D90758F4A7019601BE018AE693
:1000D00090E0EBD18AE690E041D12196EFCFDF911D
:1000E000CF91FF90EF90DF90CF900895982F90954B
:1000F000953550F4892F63E037D5482F892F6DEF60
:1001000033D560E0815019C09A3A60F49555892F33
:100110006DEF2AD54FEF480F892F63E025D5682F63
:1001200080E00BC09A5A892F6DEF1ED52FEF280F54
:10013000892F63E019D540E0622F0CC20F931F9303
:10014000CF93DF9320ED37E040E050E068EE73E0BE
:1001500083E081D300E010E0C0E0D0E08AE690E0E8
:1001600002D2C817D90758F48C2F800FBFDF9B012C
:10017000AC01BE018AE690E098D12196EFCF8AE6E5
:1001800090E0ECD00F5F1F4F011581E0180721F7B9
:10019000DF91CF911F910F9108950F931F93CF93EC
:1001A000DF9320ED37E040E050E064EF71E083E062
:1001B00052D300E010E0C0E0D0E08AE690E0D3D176
:1001C000C817D90790F48AE690E0CDD1BC019C2FE6
:1001D00080E0E4D4862F800F89DF9B01AC01BE0153
:1001E0008AE690E062D12196E8CF8AE690E0B6D028
:1001F0000F5F1F4F011585E01807E9F6DF91CF91DA
:100200001F910F910895CF9384E0FAD2C82F8111E6
:1002100035C080916600813089F562E370E080E04E
:1002200090E023D284E0ECD2C82F811127C0209126
:100230006800309169002F5F3F4F233031052CF467
:10024000309369002093680004C0109269001092F6
:10025000680020916800309169002130310539F043
:100260002230310531F0232B49F468DF07C095DFD8
:1002700005C04DE76FEF8DE76DD10EDFC0936600CF
:10028000CF91089523E041E06AE070E08AE690E0D3
:1002900003C08AE690E04AC0FF920F931F93CF936A
:1002A000DF93EC01CB01F22E7983688363E070E089
:1002B00064D48C019B838A834C831D822B871C868C
:1002C0001D861E861F8650E0FA01EC5DFF4FE4910B
:1002D000F0E0E45DFF4FE491F0E0F98BE88BFA0188
:1002E000E25EFF4F44914A8B33D59F838E83009704
:1002F00021F0A80160E070E052D6F0FE04C081E079
:10030000888719860BC0F2FE06C081E0888782E0EC
:1003100089871A8605C0188681E0898782E08A87E6
:10032000DF91CF911F910F91FF900895CF93DF93AD
:10033000EC018E819F81009709F0A2D560E08C814D
:10034000DF91CF91F7C1CF93DF93EC0161E08C8116
:10035000F1D160E08C81DF91CF9123C2CF92DF9207
:10036000EF92FF920F931F93CF93DF93CDB7DEB73A
:1003700027970FB6F894DEBF0FBECDBF8C01DC010E
:1003800016968D919C911797892B09F47FC049D1BE
:10039000F801C484D584E684F7846C197D098E093C
:1003A0009F09623371058105910588F3F894828174
:1003B00093819A838983A681B781FD0131968C91BF
:1003C0008F831B8298B3D80152968C91982B9E8371
:1003D00098B3809589238D838D818C838F8187FF4E
:1003E00002C08E818C835E816D814F813C812B8127
:1003F00089819A8158BB262F38BB00C046FD252F26
:1004000068BB00C058BB362F28BB00C045FD352F48
:1004100068BB00C058BB262F38BB00C044FD252F49
:1004200068BB00C058BB362F28BB00C043FD352F2A
:1004300068BB00C058BB262F38BB00C042FD252F2B
:1004400068BB00C058BB362F28BB00C041FD352F0C
:1004500068BB00C058BB262F38BB00C040FD252F0D
:1004600068BB019758BB362F28BB419147FD352FFC
:1004700068BB01F64F833C832B839A8389837894EE
:10048000D0D0F801648775878687978727960FB63F
:10049000F894DEBF0FBECDBFDF91CF911F910F91BA
:1004A000FF90EF90DF90CF9008958F929F92AF9240
:1004B000BF92CF92DF92EF92FF920F931F93CF9351
:1004C000DF93FC014B0189019A01808191816817BA
:1004D000790798F5C901AA27BB27A82EC12ED22ECD
:1004E000E32EFF24BC2CD02FC581CC2379F0D0E0A3
:1004F00090E0BE0142D3A92E8C2D90E0BE013DD3E9
:10050000B92E802F90E0BE0138D3D92FC40163E00B
:1005100070E033D326813781280F391F8085D901B8
:10052000A80FB11DAC928185D901A80FB11DBC9255
:100530008285F901E80FF11DD083DF91CF911F91E2
:100540000F91FF90EF90DF90CF90BF90AF909F9072
:100550008F900895962F50E060E070E0592B682B43
:10056000CB01BA010895FC0180819181089583B780
:10057000887F83BF8AB58C7F81608ABD83B7877F80
:1005800083BF83B7887F836083BF089578941F9269
:100590000F920FB60F9211242F933F938F939F9337
:1005A000AF93BF9380917E0090917F00A0918000D7
:1005B000B091810030917D0026E0230F2D3730F07F
:1005C00029E8230F0396A11DB11D03C00296A11DAA
:1005D000B11D20937D0080937E0090937F00A093B7
:1005E0008000B09381008091820090918300A0915F
:1005F0008400B09185000196A11DB11D80938200F9
:1006000090938300A0938400B0938500BF91AF9135
:100610009F918F913F912F910F900FBE0F901F9040
:1006200018953FB7F8948091820090918300A09133
:100630008400B09185002FB508B602FE05C02F3F9B
:1006400019F00196A11DB11D3FBF6627782F892F94
:100650009A2F620F711D811D911D43E0660F771F58
:10066000881F991F4A95D1F70895CF92DF92EF9294
:10067000FF92CF93DF936B017C01D3DFEB01C114B9
:10068000D104E104F10471F0CCDF6C1B7D0B683EFA
:100690007340A8F381E0C81AD108E108F108C851F5
:1006A000DC4FEDCFDF91CF91FF90EF90DF90CF90B7
:1006B000089513BE1ABC12BE19BC18BC89B7857E3A
:1006C00089BF88B78A6188BF52CFE1E0F0E081E25C
:1006D0008093570084910895CF93C1B7F6DFC81770
:1006E00049F001B607FE03C081B7875002C081B749
:1006F000855081BFF89480E886BD81E086BD7894FE
:1007000080B7806880BF80B7806480BF8CB580640C
:100710008CBD8FEF8DBD80B7807F876080BF89B72C
:10072000846089BF24DF86B1887F866086B9379A66
:10073000CF910895CF93DF9390E0FC01E25EFF4FED
:100740002491FC01EC5DFF4F8491882339F190E006
:10075000FC01E25DFF4FA491B0E0FC01E45DFF4FBE
:100760008491611106C09FB7F8948C9120958223E3
:1007700013C0623069F4C82FD0E09FB7F8948C9111
:10078000322F309583238C938881822B888305C0F8
:100790009FB7F8948C91822B8C939FBFDF91CF9160
:1007A0000895A82FB0E0FD01E25EFF4F9491FD0196
:1007B000EC5DFF4FE491EE2311F1811103C08AB586
:1007C0008F7304C0813021F48AB58F7C8ABD05C047
:1007D000843019F48CB58F7C8CBDF0E0E45DFF4F64
:1007E000A491B0E02FB7611105C0F8948C91909559
:1007F000892303C0F8948C91892B8C932FBF089583
:10080000282F30E0F901E25EFF4F9491F901EC5D91
:10081000FF4FE491EE23E1F0811103C08AB58F739D
:1008200004C0813021F48AB58F7C8ABD05C0843034
:1008300019F48CB58F7C8CBDF0E0E65DFF4FE49140
:10084000F0E02081292381E090E021F480E0089508
:1008500080E090E00895AF92BF92CF92DF92EF9246
:10086000FF921F93CF93DF93182FEB0169017A0159
:10087000809167008F3F09F040C013BE1ABC12BEC2
:1008800019BC18BC89B7857E89BF88B78A6188BFC3
:100890008AB58C7F82608ABD83B7877F83BF123021
:1008A00078F41092880010928700109286008AB522
:1008B000111103C08F7380641AC08F7C806117C0D0
:1008C000212F30E0F901EC5DFF4FE491F0E0E45DB1
:1008D000FF4FE491F0E0F0938800E0938700F90186
:1008E000E25EFF4F2491209386008AB58F708ABD07
:1008F00061E0812F1FDF10936700A0906700A112B5
:1009000096C083B7887F83BF12BE209709F480C04A
:10091000C031D10598F0CD33D10590F0C43FD10559
:10092000A0F0CE3987E0D807A8F0CB3E8CE3D807FB
:10093000B0F4A2E0BA2E28E030E015C0C0E1D0E06B
:10094000F5E0BF2E20E034E00EC0E4E0BE2E20E053
:1009500031E009C073E0B72E20E430E004C0BB24CE
:10096000B39421E030E0BE0180E090E0660F771F95
:10097000881F991F40E050E063D1B22FA32FF42FBE
:10098000E52F60E074E284EF90E02B2F3A2F4F2F99
:100990005E2F3AD12F5F3F4F4F4F5F4F5595479591
:1009A000379527956FEF620F69BDC114D104E1043B
:1009B000F104C1F0BE01660F771F80E090E0A7014F
:1009C000960140D1B901CA0128EE33E040E050E081
:1009D000F9D02093890030938A0040938B00509384
:1009E0008C000EC08FEF9FEFDC0180938900909305
:1009F0008A00A0938B00B0938C0081E08A1518F4D4
:100A000089B7806189BF83B7887F8B2983BF0FC077
:100A100089B7857E89BF60E0812FDF91CF911F91DB
:100A2000FF90EF90DF90CF90BF90AF90BACEDF9164
:100A3000CF911F91FF90EF90DF90CF90BF90AF903C
:100A40000895909167009F3F19F1981711F08F3F1B
:100A5000F9F489B7857E89BF83B7887F83BF29DE94
:100A6000E0918700F0918800309759F0209186003E
:100A7000808190E030E0209530958223932380831D
:100A800004C060E0809167008CDE8FEF8093670088
:100A9000089578941F920F920FB60F9211242F93FE
:100AA0003F934F935F936F937F938F939F93AF93F6
:100AB000BF93EF93FF938091890090918A00A0915A
:100AC0008B00B0918C00892B8A2B8B2B61F180914C
:100AD000890090918A00A0918B00B0918C0018162B
:100AE00019061A061B0614F58091890090918A0058
:100AF000A0918B00B0918C000197A109B10980935E
:100B0000890090938A00A0938B00B0938C00809111
:100B1000890090918A00A0918B00B0918C00892B64
:100B20008A2B8B2B19F48FEF8CDF09C090918600F4
:100B3000E0918700F0918800808189278083FF9170
:100B4000EF91BF91AF919F918F917F916F915F9145
:100B50004F913F912F910F900FBE0F901F901895BE
:100B6000BBDD8EDA50DBFECF002480FD060E660F63
:100B700011F08695D1F7802D08950024552704C0E3
:100B8000080E591F880F991F009729F076956795D1
:100B9000B8F37105B9F7802D952F0895AA1BBB1BDB
:100BA00051E107C0AA1FBB1FA617B70710F0A61B6D
:100BB000B70B881F991F5A95A9F780959095BC018E
:100BC000CD010895A1E21A2EAA1BBB1BFD010DC089
:100BD000AA1FBB1FEE1FFF1FA217B307E407F507ED
:100BE00020F0A21BB30BE40BF50B661F771F881FC9
:100BF000991F1A9469F760957095809590959B015F
:100C0000AC01BD01CF010895052E97FB16F40094A9
:100C10000FD057FD05D0D6DF07FC02D046F408C040
:100C200050954095309521953F4F4F4F5F4F089518
:100C300090958095709561957F4F8F4F9F4F089548
:100C400068940013E894A0E0B0E0E8E2F6E01DC08C
:100C5000EFEFE7F959016A015E23550FEE08FE2C0C
:100C600087019B01AC019E23990F660B762FCB0168
:100C700041D0CDB7DEB7EAE024C02F923F924F9229
:100C80005F926F927F928F929F92AF92BF92CF921C
:100C9000DF92EF92FF920F931F93CF93DF93CDB725
:100CA000DEB7CA1BDB0B0FB6F894DEBF0FBECDBF9D
:100CB00009942A88398848885F846E847D848C846E
:100CC0009B84AA84B984C884DF80EE80FD800C8177
:100CD0001B81AA81B981CE0FD11D0FB6F894DEBF5A
:100CE0000FBECDBFED010895EE0FFF1F0590F491EB
:100CF000E02D0994DF93CF939F92A0E49A2E0024D5
:100D0000D001E001F00116950795F794E794D79488
:100D1000C794B794A79448F41068A20FB31FC41FD8
:100D2000D51FE61FF71F081E191E220F331F441F71
:100D3000551F661F771F881F991F9A9421F79D01E1
:100D4000AE01BF01C00111249F90CF91DF910895A2
:100D5000CF93DF938230910510F482E090E0E09130
:100D60008F00F091900020E030E0A0E0B0E03097FC
:100D700039F14081518148175907B8F04817590790
:100D800071F482819381109729F013969C938E932E
:100D900012972CC09093900080938F0027C021154C
:100DA000310531F04217530718F0A901DB0101C0EA
:100DB000EF019A01BD01DF010280F381E02DD7CF61
:100DC00021153105F9F0281B390B2430310580F449
:100DD0008A819B816115710521F0FB0193838283D8
:100DE00004C09093900080938F00FE01329644C01F
:100DF000FE01E20FF31F8193919322503109398351
:100E000028833AC020918D0030918E00232B41F42D
:100E1000209162003091630030938E0020938D000A
:100E200020916000309161002115310541F42DB70A
:100E30003EB74091640050916500241B350BE09152
:100E40008D00F0918E00E217F307A0F42E1B3F0BEC
:100E50002817390778F0AC014E5F5F4F241735072C
:100E600048F04E0F5F1F50938E0040938D0081938A
:100E7000919302C0E0E0F0E0CF01DF91CF910895BF
:100E8000CF93DF93009709F487C0FC013297138258
:100E90001282C0918F00D0919000209781F4208120
:100EA0003181280F391F80918D0090918E0082171B
:100EB000930779F5F0938E00E0938D006DC0DE010D
:100EC00020E030E0AE17BF0750F412964D915C91D0
:100ED00013979D014115510509F1DA01F3CFB38351
:100EE000A28340815181840F951F8A179B0771F45B
:100EF0008D919C911197840F951F02969183808309
:100F000012968D919C9113979383828321153105BD
:100F100029F4F0939000E0938F003EC0D90113961E
:100F2000FC93EE9312974D915D91A40FB51FEA17B4
:100F3000FB0779F480819181840F951F0296D90176
:100F400011969C938E938281938113969C938E939A
:100F50001297E0E0F0E08A819B81009719F0FE0192
:100F6000EC01F9CFCE01029628813981820F931FBF
:100F700020918D0030918E002817390769F4309741
:100F800029F41092900010928F0002C013821282F6
:100F9000D0938E00C0938D00DF91CF910895DC0136
:100FA00001C06D9341505040E0F7089510E0C2E356
:100FB000D0E003C0FE019ADE2296C433D107D1F7F8
:040FC000F894FFCFD3
:080FC40000009100800001FF14
:00000001FF
